:100000000C94C41C0C94041D0C94041D0C94041D2D
:100010000C94041D0C94041D0C94041D0C94041DDC
:100020000C94041D0C94041D0C94041D0C94041DCC
:100030000C94041D0C94041D0C94041D0C94041DBC
:100040000C94041D0C94F4E30C94041D0C94041DF6
:100050000C94041D0C9413D90C94041D0C94F0C63C
:100060000C94041D0C94A83F0C949E3F0C94041D0A
:100070000C94041D0C94041D0C94041D0C94041D7C
:100080000C94DB300C94041D0C94041D0C94041D82
:100090000C94041D0C94041D0C94041D0C94041D5C
:1000A0000C94041D0C94041D0C94AD300C94041D90
:1000B0000C94041D0C94041D0C94041D0C94041D3C
:1000C0000C94041D0C94041D0C94041D0C94A43178
:1000D0000C946E310C94041D0C94041D0C94041D9E
:1000E0000C94041D084AD73B3BCE016E84BCBFFD77
:1000F000C12F3D6C74319ABD56833DDA3D00C77FF8
:1001000011BED9E4BB4C3E916BAAAABE0000008090
:100110003F05A84CCDB2D44EB93836A9020C50B91F
:10012000918688083CA6AAAA2ABE000000803F004B
:100130000C9439400C9459400C9448320D9420256D
:100140000D94211A0D94461A0D94F3240D94FC1964
:100150000C94DC790D94AD240C946D2E0C94CF7C12
:100160000C9445C50D9495240C942AC50C94E93F34
:100170000C9427400C94DBB90C943C320D94DB18A2
:100180000C944DC40C9418400C94E0790C947AB6FD
:100190000C94BD790C9450320C94712E0D94F52F63
:1001A0000D94B0240C94052E0C94AC7C0C94E67940
:1001B0000C94A7B60C94F4790D94AA240C9497C0CF
:1001C0000C944C320C941ABA0D94D82A0C9414C086
:1001D0000C94CE790C9467320C94C67C0D949824C0
:1001E0000D94A62A0C9440320C94B8B60C94B77CAB
:1001F0000C94492E0C94C3C50C94CDC60C94E7B94D
:100200000C94C8790C94F3B50D94A1240C9412B6F7
:100210000C94B2B60C9414320C9454400C9496C0C6
:100220000C9430C40D946B1A0C94F3790C945A32DC
:100230000C940BBA0D94682A0C94BBB60C94252E22
:100240000C94E7B40C947FB50C9441BA0C947232C0
:100250000D9462240C9463B40C94E6C40C9483B69D
:100260000C944D2E0D94A4240C94272E0C94B2B310
:100270000C94C97C0C946F2E0C94292E0C94D2797A
:100280000C9473B30C9454B60C9423320D94B2199D
:100290000C9426BA0C94C5790C949AB60D94B32498
:1002A0000C94A8B50C94B5B60C9455320C9402C6B7
:1002B0000C94C37C0D9424250C9476400C94BCB50E
:1002C0000C94032E0C9450400C9440400C9471B646
:1002D0000C94D8790C9463400C945E400C945FB6F7
:1002E0000C948CB60D941D190C94C07C0C94F87968
:1002F0000C947E400C94C5C40D94D7190D94912A8A
:100300000C94BD7C0C94C1790C946B400C94D92D49
:100310000C94EE790C9411B50C9496B60C945F3253
:100320000D94D72F0C94B3790C94D5C50C944B2E07
:100330000D949B240D9467190C949CB60C947A32FE
:100340000C94B47C0C9468B60C94B17C0C94EA794F
:100350000C94E5310C94E52D0D949E240C94DFB59E
:100360000C94B9790D9442190C9435320C94CC7CD0
:100370000D94A7240C9448400C94BA7C0C944432FD
:100380000C9444400C9432BA0C944C400C9445B4F8
:100390004E414E494E495459494E46CDCCCC3D0A6A
:1003A000D7233C17B7D13877CC2B329595E6241F4D
:1003B000B14F0A000020410000C84200401C462006
:1003C000BCBE4CCA1B0E5AAEC59D7400407A10F3D9
:1003D0005A00A0724E18090010A5D4E80000E87673
:1003E00048170000E40B54020000CA9A3B000000CA
:1003F000E1F505000080969800000040420F0000E3
:1004000000A08601000000102700000000E80300A3
:100410000000006400000000000A0000000000016D
:1004200000000000002C76D888DC674F0823DFC16D
:10043000DFAE59E1B1B796E5E3E453C63AE6519928
:100440007696E8E6C28426EB898C9B62ED407C6F51
:10045000FCEFBC9C9F40F2BAA56FA5F490055A2A08
:10046000F75C936B6CF9676DC11BFCE0E40D47FE14
:10047000F520E6B500D0ED902E0300943577050009
:1004800080841E080000204E0A000000C80C333390
:1004900033330F986E12831141EF8D2114893BE69F
:1004A0005516CFFEE6DB18D1844B381BF77C1D9028
:1004B0001DA4BBE424203284725E228100C9F12491
:1004C000ECA1E53D27434F4D4D554E49434154491D
:1004D0004F4E0044525952554E004552524F5253BE
:1004E00000494E464F004543484F004572726F72B7
:1004F0002077726974696E6720746F204545505289
:100500004F4D210A0053544F505045442E20005067
:1005100072696E7465722073746F707065642064A4
:10052000756520746F206572726F72732E20466934
:100530007820746865206572726F7220616E642025
:10054000757365204D39393920746F207265737465
:100550006172742E202854656D70657261747572B5
:10056000652069732072657365742E20536574204D
:100570006974206166746572207265737461727447
:10058000696E67290A004E6F20436865636B737557
:100590006D2077697468206C696E65206E756D6278
:1005A00065722C204C617374204C696E653A200092
:1005B0004E6F20436865636B73756D20776974684F
:1005C000206C696E65206E756D6265722C204C61C1
:1005D0007374204C696E653A2000636865636B73C1
:1005E000756D206D69736D617463682C204C617347
:1005F00074204C696E653A20004C696E65204E751A
:100600006D626572206973206E6F74204C61737423
:10061000204C696E65204E756D6265722B312C2001
:100620004C617374204C696E653A20004D31313055
:100630000053657269616C20737461747573206D09
:1006400069736D617463680A00776169740A0053A5
:10065000442072656164206572726F720A00746F63
:100660006F206D75636820696E61637469766520BB
:1006700074696D65202D2063757272656E742063D8
:100680006F6D6D616E643A20002121204B494C4C06
:10069000206361757365642062792000486F74651A
:1006A0006E642049646C652054696D656F757400D3
:1006B000486F74656E642049646C652054696D658B
:1006C0006F75740A003D3D6F6E46696C616D656EB5
:1006D0007452756E6F75743D3D0070617573650081
:1006E0004D363030002066696C616D656E745F72E6
:1006F000756E6F7574200066696C616D656E745FF0
:1007000072756E6F757420540046696C616D656E0C
:100710007452756E6F75742054004D313030305303
:1007200000627573793A2070617573656420666F35
:100730007220696E7075740A00627573793A207060
:10074000617573656420666F7220757365720A0047
:10075000627573793A2070726F63657373696E673F
:100760000A0025533A202553002A2A2A6B696C6C0B
:100770002A2A2A00706F7765726F6666004B494CB3
:100780004C45442E20005072696E74657220686179
:100790006C7465642E206B696C6C28292063616C15
:1007A0006C6564210A006563686F3A004572726F78
:1007B000723A0042696C696E656172204C657665BB
:1007C0006C696E6720477269643A0A002F2F616373
:1007D00074696F6E3A006E6F7469666963617469FB
:1007E0006F6E2000656E640073686F7700627574C9
:1007F000746F6E00486F74656E6420746F6F206351
:100800006F6C640A0053656E64204D31303820747B
:100810006F20726573756D650A00496E7365727439
:100820002066696C616D656E7420616E642073650D
:100830006E64204D3130380A00526568656174205D
:10084000446F6E6500526568656174696E672E2E2F
:100850002E00526568656174004865617465722098
:1008600054696D656F75740053656E64204D313049
:100870003820746F2068656174206E6F7A7A6C65B9
:100880000A004E6F7A7A6C65205061726B65640065
:1008900070617573656400506175736500576169B7
:1008A00074696E6720666F72206865617475702E5A
:1008B0000A004C656176696E6720473236003F5307
:1008C000706563696669656420582C5920636F6F91
:1008D0007264696E617465206F7574206F66206242
:1008E0006F756E64732E0A003F285229657065612A
:1008F000742076616C7565206E6F7420706C617504
:100900007369626C653B206D75737420626520614C
:1009100074206C6561737420312E0A003F285229BF
:100920006570656174206D757374206265207370E5
:1009300065636966696564207768656E206E6F74AB
:10094000207573696E6720616E204C43442E0A0047
:100950003F537065636966696564206E6F7A7A6C6F
:10096000652074656D7065726174757265206E6F57
:100970007420706C61757369626C652E0A003F5358
:1009800070656369666965642066696C616D656E32
:10099000742073697A65206E6F7420706C61757352
:1009A00069626C652E0A003F53706563696669650C
:1009B00064207072696D65206C656E677468206E66
:1009C0006F7420706C61757369626C652E0A003FEC
:1009D0005072696D65206C656E677468206D757303
:1009E0007420626520737065636966696564207749
:1009F00068656E206E6F74207573696E6720616E16
:100A0000204C43442E0A003F537065636966696554
:100A100064206E6F7A7A6C652073697A65206E6FD8
:100A20007420706C61757369626C652E0A003F52A8
:100A3000657472616374696F6E204D756C74697052
:100A40006C696572206D75737420626520737065C2
:100A50006369666965642E0A003F53706563696661
:100A60006965642052657472616374696F6E204DAC
:100A7000756C7469706C696572206E6F7420706C2F
:100A800061757369626C652E0A003F537065636916
:100A900066696564206C617965722068656967685C
:100AA00074206E6F7420706C61757369626C652E52
:100AB0000A0043292E0A003F537065636966696521
:100AC00064206265642074656D706572617475720E
:100AD00065206E6F7420706C61757369626C65203F
:100AE0002834302D00473236207374617274696E79
:100AF000672E2E2E0A004F46460A00466164652086
:100B00004865696768742000426564204C657665B5
:100B10006C696E6720004661696C656420746F20A3
:100B2000656E61626C6520426564204C6576656C1B
:100B3000696E670A00496E76616C6964206D657341
:100B4000682E0A0050726F62696E6720506F696E7E
:100B5000740025532025692F2569002E0A002F00D7
:100B600050726F62696E67206D65736820706F697F
:100B70006E742000202844525952554E29004732A5
:100B800039204175746F20426564204C6576656C30
:100B9000696E67003F20284C2C522C462C4229209D
:100BA0006F7574206F6620626F756E64732E0A0015
:100BB0003F2856296572626F7365206C6576656C97
:100BC00020696D706C61757369626C652028302DC9
:100BD00034292E0A00426164205A2076616C7565C2
:100BE0000A004E6F2062696C696E656172206772DF
:100BF00069640A0020440020204D32303020530028
:100C0000202844697361626C6564293A0046696C06
:100C1000616D656E742073657474696E677300200E
:100C2000204D3230312058004D617820416363659A
:100C30006C65726174696F6E2028756E6974732FAC
:100C40007332290020204D3230332058004D617816
:100C5000206665656472617465732028756E6974B9
:100C6000732F73290020520020204D323034205041
:100C700000416363656C65726174696F6E202875ED
:100C80006E6974732F7332292028503C7072696E1C
:100C9000742D616363656C3E20523C7265747261B1
:100CA00063742D616363656C3E20543C747261769D
:100CB000656C2D616363656C3E29002054002053F0
:100CC0000020204D323035204200416476616E6351
:100CD00065642028423C6D696E5F7365676D656E63
:100CE000745F74696D655F75733E20533C6D696E0A
:100CF0005F66656564726174653E20543C6D696E23
:100D00005F74726176656C5F666565647261746557
:100D10003E20583C6D61785F6A65726B3E20593C9D
:100D20006D61785F6A65726B3E205A3C6D61785FD9
:100D30006A65726B3E20453C6D61785F6A65726BD7
:100D40003E290020440020490020204D333031202E
:100D50005000486F74656E64205049440020440080
:100D600020490020204D333034205000426564205B
:100D7000504944003A200020536572766F200020CD
:100D80006F7574206F662072616E67650A00536527
:100D900072766F2000363726033C3D380E2E303EEB
:100DA000121A1C180A43090844000150726F746536
:100DB000637465642050696E0A003F43616E6E6F14
:100DC0007420777269746520746F20494E505554B1
:100DD0000A00496E76616C69642050696E204D6F1F
:100DE00064650A00203B0020550020204D3630333A
:100DF000204C0046696C616D656E74206C6F616497
:100E00002F756E6C6F6164004D323453256C6454E1
:100E1000256C64004739322E394525730047314629
:100E200025640047315A2573463630300047315823
:100E300025735925734633303030004D31303650EC
:100E40002569532569004D313039532569004D32EC
:100E50003030442573004739322E395A2573004DFE
:100E60003432305325635A25730047323852305894
:100E7000590047315A257346363030004739322EF3
:100E8000395A2573004739322E394530004D3130FB
:100E900039532569004D313930532569004D3432BD
:100EA00030205330205A30003D3D4F6E506F7765F3
:100EB000724C6F7373526573756D653D3D00203BD9
:100EC000200020204D343133205300506F7765725D
:100ED0002D6C6F7373207265636F76657279004F46
:100EE0004646004F4E00203B20486F7374206861D7
:100EF0006E646C696E672000203B204D6F64652036
:100F0000006D6D00203B2044697374616E63652041
:100F10000046696C616D656E742072756E6F7574D4
:100F200020003B200020496E76616C696420657862
:100F3000747275646572200047322F4733206261F6
:100F40006420706172616D65746572730A00536C20
:100F50006565702E2E2E005A2050726F62652050EB
:100F6000617374204265640A005A2050726F626592
:100F7000205061737420426564004732384C300061
:100F8000205A3A200020593A200042656420583AFD
:100F900020004D65736820706F696E74206F7574E2
:100FA000206F662072616E67650A004E6F204D6F7C
:100FB00076652E00456E642066696C65206C6973E9
:100FC000740A00426567696E2066696C65206C6909
:100FD00073740A004E6F206D656469610A00286EA3
:100FE0006F2066696C65290043757272656E7420A6
:100FF00066696C653A200043616E6E6F74206F7095
:10100000656E2073756264697220005072696E7437
:101010002074696D653A20006F6B006F666600E6AC
:1010200004E104DA04D304C50444454255473A00B8
:101030004D313133205300544D334420313053204F
:1010400050726F204F46462E00434F4E4649475F31
:101050004558504F5254004D4541545041434B0068
:10106000434F4F4C45525F54454D504552415455A6
:101070005245004348414D4245525F54454D50450D
:1010800052415455524500424142595354455050E3
:10109000494E470041524353004D4F54494F4E5F14
:1010A0004D4F44455300544845524D414C5F5052BA
:1010B0004F54454354494F4E00455854454E4445BE
:1010C000445F4D323000435553544F4D5F464952B3
:1010D0004D574152455F55504C4F4144004C464E90
:1010E0005F5752495445004C4F4E475F46494C4567
:1010F0004E414D45004155544F5245504F52545F5B
:1011000053445F5354415455530053445F5752491D
:10111000544500524550454154004D554C54495F8B
:10112000564F4C554D450053444341524400505294
:101130004F4D50545F535550504F525400484F53E9
:10114000545F414354494F4E5F434F4D4D414E44D0
:101150005300454D455247454E43595F5041525308
:10116000455200434153455F4C494748545F425202
:10117000494748544E45535300544F47474C455FE9
:101180004C494748545300534F4654574152455FCA
:10119000504F574552004255494C445F50455243C9
:1011A000454E54004C4556454C494E475F444154CA
:1011B00041005A5F50524F42450052554E4F5554D0
:1011C000004155544F4C4556454C005052494E54E1
:1011D0005F4A4F420050524F4752455353004155CA
:1011E000544F5245504F52545F54454D5000415555
:1011F000544F5245504F52545F504F5300564F4C2E
:10120000554D455452494300454550524F4D0042BB
:10121000494E4152595F46494C455F5452414E53E5
:101220004645520053455249414C5F584F4E5F5816
:101230004F4646004649524D574152455F4E414D3B
:10124000453A4D61726C696E204457372E342E3703
:1012500020544D33442053534D44424220284A7574
:101260006E20203120323032342032323A32313A5C
:1012700035332920534F555243455F434F44455F13
:1012800055524C3A68747470733A2F2F67697468BA
:1012900075622E636F6D2F496E73616E697479414B
:1012A00075746F6D6174696F6E2F4D61726C696ECC
:1012B0002F747265652F437265616C697479447728
:1012C000696E5F322E302050524F544F434F4C5F67
:1012D00056455253494F4E3A312E30204D414348E6
:1012E000494E455F545950453A544D3344203130AE
:1012F000532050726F2045585452554445525F4315
:101300004F554E543A3120555549443A636564650A
:10131000326132662D343161322D343734382D3913
:101320006231322D63353563363266333637666661
:10133000002F2F005741524E494E4721204C6F77C6
:10134000205A204A65726B206D6179206C6561645A
:1013500020746F20756E77616E746564207061759E
:101360007365732E0A0020580020204D61783A20C2
:1013700000200020204D696E3A2000203B200020F4
:10138000204D323131205300536F667420656E64F6
:1013900073746F707300250A0046523A0020466C41
:1013A0006F773A200050726F6265204F66667365F2
:1013B00074205A0050726F6265204F6666736574C0
:1013C000205A0064697300656E0043290A00616257
:1013D0006C656420286D696E2074656D7020004313
:1013E0006F6C6420657874727564657320617265D2
:1013F0002000424C546F756368204853206D6F6421
:101400006520004D34323120696E636F72726563FE
:101410007420706172616D657465722075736167A7
:10142000650A004D65736820706F696E74206F7572
:1014300074206F662072616E67650A0045455052E0
:101440004F4D204F4B0A00290A0020746F20003FA7
:101450005A206F7574206F662072616E6765202850
:1014600000290A0020746F20003F59206F757420F6
:101470006F662072616E676520282D00290A0020A2
:10148000746F20003F58206F7574206F6620726162
:101490006E676520282D002E0A002028302D31305F
:1014A00029002076616C7565206F7574206F662049
:1014B00072616E676500416476616E6365204B3DC5
:1014C000004D383400446F6E65207072696E746927
:1014D0006E672066696C650A004D3737004D333101
:1014E0000020204D323036205800486F6D65206F47
:1014F0006666736574004F66667365747320417029
:10150000706C696564004572723A20546F6F206692
:1015100061722100546F6F206661722066726F6D78
:10152000207265666572656E636520706F696E74A2
:101530000A004361703A00626567696E004D3020B1
:1015400053746F70004D312053746F7000436C6999
:10155000636B20746F20526573756D652E2E2E009F
:10156000203B0020204D3835312058005A2D507234
:101570006F6265204F666673657400526573756DA2
:10158000696E67205344002569730025696D202525
:101590006973002569682025696D20256973002518
:1015A0006964202569682025696D202569730025F7
:1015B000697920256964202569682025696D2025C1
:1015C0006973000A53746174733A2046696C616DE3
:1015D000656E7420757365643A20002C204C6F6E24
:1015E00067657374206A6F623A2000546F74616C8F
:1015F0002074696D653A200053746174733A200059
:101600002C204661696C65643A20002C2046696E86
:1016100069736865643A20005072696E74733A2089
:101620000053746174733A2000436F6F6C696E6786
:101630002E2E2E0045312025530042656420436F35
:101640006F6C696E672E2E2E0042656420486561BE
:1016500074696E672E2E2E00504944204175746FB8
:1016600074756E6500206661696C65642120426155
:1016700064206865617465722069640A0050494499
:10168000204175746F74756E65003D3D4477696ED9
:1016900020496E697420436F6D706C6574653D3DC3
:1016A0000070012C0190012701B0012201C0011D31
:1016B00001F00118011002130130020E016002094D
:1016C0000190020401C002FF000003FA004003F58C
:1016D000008003F000D003EB002004E6007004E17A
:1016E00000E004DC004005D700C005D2004006CD74
:1016F00000D006C8008007C3003008BE00F008B95B
:1017000000C009B400B00AAF00B00BAA00D00CA50D
:1017100000000EA000500F9B00C0109600501291C8
:101720000000148C00C0158700B0178200B0197D2E
:1017300000D01B7800001E730040206E00902269CC
:1017400000F024640040275F0090295A00E02B55E8
:1017500000102E500020304B0010324600E0334184
:101760000090353C001037370070383200A0392D1A
:1017700000B03A2800A03B2300603C1E00103D1939
:1017800000903D1400103E0F00703E0A00C03E0560
:1017900000003F0000403FFBFF803FF6FFC03FF1ED
:1017A000FF00002100240027002A002D0030003314
:1017B0000001010000040107010A010000220025C8
:1017C0000028002B002E003100340002010000052B
:1017D0000108010B01000020002300260029002C35
:1017E000002F00320000010000030106010901057D
:1017F000050505070508080808020202020A0A088A
:1018000008040404040101010101010101030303AF
:101810000303030303040707070C0C0C0C0C0C0C4C
:101820000C0202020206060606060606060B0B0B53
:101830000B0B0B0B0B01021020200808102040108E
:101840002040800201020108040201010204081084
:1018500020408080402010080402018004020180A2
:1018600040201008040201080402010102040810CB
:10187000204080010204081020408000000A0B0272
:10188000090C0D0E08070304010000000000000011
:101890000000000000000000000000000000000048
:1018A0000000000000000012111000000000000005
:1018B0000000000000000000000000000000000028
:1018C00000702600009B1E0000C3150000C70D001D
:1018D00000F40700004F0400004002000026010051
:1018E0000020746F6F206C6F6E672065787472755E
:1018F00073696F6E2070726576656E7465640A0038
:1019000020636F6C6420657874727573696F6E20E4
:1019100070726576656E7465640A004D32352050CC
:101920000A4D323400526573756D6500554920507B
:10193000617573650043616E6E6F7420656E7465CA
:1019400072207375626469723A20004E6F204D6197
:10195000746368203A00436F6E73747261696E201D
:101960006D65736856616C20006D65736856616CB7
:10197000200079506E74200078506E7420006D65E0
:101980007368506F696E742000446973706C61797C
:101990004272696768746E657373205365743A2088
:1019A00000446973706C61794272696768746E652E
:1019B0007373204C43443A20004D32320A4D323189
:1019C0000052656672657368005067557000506715
:1019D000446F776E0049732046696C652000497337
:1019E000204469722000476F557044697200486155
:1019F00073204D656469610046696C656E616D6553
:101A00002053656C6563746564004D31303030433C
:101A1000004D31303030002046696C616D656E7468
:101A200020526573706F6E7365204E6F0052657340
:101A3000756D652059657320647572696E672070D5
:101A400072696E74000A204E6F2046696C616D6584
:101A50006E7400496E76616C6964204F7074696FB2
:101A60006E004D3530300053746F726520536574CD
:101A700074696E6773004D3939390A4D3238305008
:101A8000305331363000424C546F756368205265D4
:101A9000736574004D3530320A4D35303000496E73
:101AA000697420454550524F4D004D35303000533C
:101AB000746F72652053657474696E677300496E44
:101AC0004C616E6743686F696365000A202A2A2AA1
:101AD0007265636461742E646174615B305D203D86
:101AE000004732380A4731204631303030205A31F1
:101AF0003000556E737570706F72746564204F702E
:101B000074696F6E2053656C6563746564004D364F
:101B1000303553300A47323858004D36303553315E
:101B20000A54300A4732380A4D36303553320A47A4
:101B30003238580A473158300A4D36303553330061
:101B40004D36303553310A54300A4732380A4D3653
:101B5000303553320A473238580A47315830004D31
:101B600036303553310A473238580A473158300039
:101B70004D32313153300A4739310A47315A302E0C
:101B80003032350A4739300A4D3231315331004D48
:101B900032313153300A4739310A47315A2D302E0C
:101BA0003032350A4739300A4D323131533100472E
:101BB00032395332004732395331004732365232CC
:101BC0003535004D3139305335350A4732380A47FB
:101BD00032390A4D3430300A4D31303453323135D8
:101BE0000A4732380A4D313039533231350A4D34D3
:101BF000323053310A473158313030593130304664
:101C0000353030300A47315A300A4D3530300A4DC0
:101C100031313720536574205A204F6666736574DE
:101C2000004731204631303030205A302E300047C6
:101C300032380A4731204631303030205A302E3089
:101C4000005A204F6666736574203A202573005A47
:101C5000204F6666736574203A202573004732383A
:101C60005A0A473146313530305A302E300047322B
:101C7000380A473146313530305A302E300042650F
:101C800064204C6576656C204F7074696F6E20001F
:101C900052657475726E203A20004D383400473119
:101CA00046313030305A302E30004732380A473112
:101CB00046313030305A302E30004D616E75616CD7
:101CC00053657454656D70005A204F666673657471
:101CD000203A20257300526F756E64696E67207418
:101CE0006F207374657000526571756573746564F7
:101CF000204F6666736574200053746F70205472B1
:101D0000696767657265640053746F70204E6F0079
:101D100053746F705072696E740048616E646C65C4
:101D200020446174612041646A75737420322053C9
:101D3000657474696E672053637265656E20004830
:101D4000616E646C652044617461205072696E74C8
:101D500046696C6520332053657474696E6720533F
:101D6000637265656E200048616E646C6520446135
:101D70007461205072696E7446696C65203220531C
:101D8000657474696E672053637265656E20004DDB
:101D900038340048616E646C652044617461205081
:101DA00072696E7446696C6520506F737400486187
:101DB0006E646C652044617461205072696E744673
:101DC000696C652050726500426567696E5377697A
:101DD000746368003D3D20436865636B6B65793DC6
:101DE0003D007265636461742E61646472203D3DE0
:101DF000007265636461742E646174615B305D20A0
:101E00003D3D0070726F6D70745F00626567696E52
:101E10000044697361626C6552756E6F7574005031
:101E2000757267654D6F726500506175736564000A
:101E3000436F6E74696E7565004C6F61642046690E
:101E40006C616D656E742054004C6F61642046694E
:101E50006C616D656E7400496E736572742066699D
:101E60006C616D656E7420616E642073656E6420B4
:101E70004D3130380A00726573756D6564004469D0
:101E8000736D69737300526573756D696E67005089
:101E9000726F62696E67204661696C65640A005002
:101EA000726F62696E67204661696C656400205AD2
:101EB0003A200020593A200042656420583A200018
:101EC000204500205A0020590020204D393220584A
:101ED0000053746570732070657220756E697400AC
:101EE000220A00556E6B6E6F776E20636F6D6D61A9
:101EF0006E643A2022002042002050006F6B0020C8
:101F0000453A00205A3A0020593A00583A006F6B7F
:101F10000A00526573656E643A20006E6F746966DC
:101F200069636174696F6E2000544D334420313011
:101F3000532050726F2052656164792E005072698F
:101F40006E74696E672E2E2E005072696E7420506A
:101F5000617573656400524553554D45204F50548B
:101F6000494F4E533A0048656174696E672E2E2EB4
:101F7000000000436C69636B20746F2068656174B6
:101F8000000000526573756D696E672E2E2E00007D
:101F90000050757267696E672E2E2E0000004C6F20
:101FA0006164696E672E2E2E000000496E736572A3
:101FB0007420616E6420436C69636B000000436CA5
:101FC00069636B20746F20636F6E74696E75650052
:101FD0000000456A656374696E672E2E2E0000004E
:101FE000506C6561736520776169742E2E2E000038
:101FF000005061726B696E672E2E2E0000005061DA
:102000007573654D73673D00454550524F4D2064D3
:1020100061746173697A65206572726F722E0A004D
:1020200053657474696E6720566F6C756D65204FCB
:102030006E203A200053657474696E672053746192
:102040006E646279204F6E203A2000536574746983
:102050006E6720566F6C756D65203A20005365746D
:1020600074696E6720526F746174696F6E203A20D4
:102070000053657474696E67205374616E6462798D
:102080002054696D65203A200053657474696E6749
:10209000205374616E646279203A20005365747431
:1020A000696E67204272696768746E657373203A5F
:1020B00020004C6F6164696E67204457494E204C84
:1020C00043442073657474696E672066726F6D2077
:1020D000454550524F4D0A0044697363617264690B
:1020E0006E67204457494E204C43442073657474F6
:1020F000696E672066726F6D20454550524F4D20C6
:102100002D2073657474696E6773207665727369C8
:102110006F6E20696E636F72726563740A00446942
:102120007363617264696E67204457494E204C4363
:10213000442073657474696E672066726F6D204504
:102140004550524F4D202D2073697A6520696E638A
:102150006F72726563740A0053746F7265642073E2
:10216000657474696E6773207265747269657665EB
:102170006400290A002062797465733B20637263EE
:1021800020002073746F7265642073657474696EC7
:1021900067732072657472696576656420280045EE
:1021A0004550524F4D20435243204572726F72008A
:1021B000202863616C63756C6174656429210A0071
:1021C00020213D2000454550524F4D204352432091
:1021D0006D69736D61746368202D202873746F724C
:1021E00065642920002053697A653A2000496E64AD
:1021F00065783A20000000FA430000FA430000200E
:102200004100008C420000A0420000A0420000C833
:10221000430080CF43EE020000EE020000640000A5
:10222000003C000000454550524F4D2056657273EA
:10223000696F6E204572726F7200204D61726C6919
:102240006E3D563837290A00454550524F4D20768D
:10225000657273696F6E206D69736D617463682058
:1022600028454550524F4D3D0024F404D9201BC44D
:102270000C5C0E9804C4095F0265077101F405F94E
:1022800000FB04B30048048700C1036900580355EC
:102290000003034500BE023A008402310053022AC3
:1022A000002902250004022000E4011C00C80119D5
:1022B00000AF011700980114008401130071011090
:1022C000006101100051010E0043010D0036010BA9
:1022D000002B010B0020010B00150109000C010966
:1022E0000003010800FB000800F3000800EB0007F2
:1022F00000E4000600DE000600D8000600D200065A
:1023000000CC000500C7000500C2000500BD0004A8
:1023100000B9000400B5000400B1000400AD0004E1
:1023200000A9000400A5000300A20003009F000410
:10233000009B000300980003009500020093000337
:1023400000900003008D0002008B00030088000253
:10235000008600020084000300810002007F00026A
:10236000007D0002007B000200790002007700017E
:102370000076000200740002007200010071000289
:10238000006F0002006D0001006C0002006A000195
:10239000006900020067000100660001006500019D
:1023A00000640002006200010061000100600001A1
:1023B000005F0002005D0001005C0001005B0001A5
:1023C000005A0001005900010058000100570001A7
:1023D00000560001005500010054000100530000A8
:1023E00000530001005200010051000100500001A3
:1023F000004F0001004E0000004E0001004D0001A2
:10240000004C0001004B0000004B0001004A00019D
:102410000049000100480000004800010047000199
:102420000046000000460001004500000045000194
:10243000004400010043000000430001004200008E
:102440000042000100410000004100010040000185
:10245000003F0000003F0001003E0000003E000180
:10246000003D0000003D0001003C0000003C000079
:10247000003C0001003B0000003B0001003A00006E
:10248000003A000100390000003900010038000066
:10249000003800000038000100370000003700015C
:1024A0000036000000360000003600010035000054
:1024B0000035000000350001003400000034000049
:1024C000003400010033000000330000003300013D
:1024D0000032000000320000003200010031000034
:1024E0000031000000310001003000000030000029
:1024F00000300001002F0000002F0000002F00001E
:10250000002F0001002E0000002E0000002E000110
:10251000002D0000002D0000002D0000002D000106
:10252000002C0000002C0000002C0000002C0001FA
:10253000002B0000002B0000002B0000002B0001EE
:10254000002A0000002A0000002A0000002A0001E2
:1025500000290000002900000029000000290000D7
:1025600000290001002800000028000000280000C9
:1025700000280000002800010027000000270000BC
:1025800000270000002700000027000100260000AF
:1025900000260000002600000026000000260001A2
:1025A0000025000000250000002500000025000097
:1025B0000025000000250001002400000024000088
:1025C000002400000024000000240001002300007B
:1025D000002300000023000000230000002300006F
:1025E0000023000000230001002200000022000060
:1025F0000022000000220000002200000022000152
:102600000021000000210000002100000021000046
:102610000021000000210000002100010020000036
:10262000002000000020000000200000002000002A
:10263000002000000020000000200001001F00001A
:10264000001F0000001F0000001F0000001F00000E
:10265000001F0000001F0001001E0000001E0000FF
:10266000001E0000001E00000024F4D43050C38E71
:1026700020C2A24017828B7011127A910D816CD901
:102680000AA861E108C7586607615143061E4B5D01
:1026900005C145A7041A411104093D980371393158
:1026A000034036DB0265339102D4305402802E1D84
:1026B00002632CEE01752AC501B028A00110278104
:1026C000018F2564012B244B01E0223401AC211F32
:1026D000018D200D01801FFC00841EED00971DDF81
:1026E00000B81CD200E61BC600201BBC00641AB256
:1026F00000B219A8000A19A0006A189900D1179110
:102700000040178B00B516840031167E00B3157992
:10271000003A157300C7146F0058146A00EE136670
:10272000008813630025135E00C7125B006C12570C
:102730000015125400C111510070114F0021114BAE
:1027400000D61049008D1047004610440002104288
:1027500000C00F4000800F3E00420F3C00060F3BC0
:1027600000CB0E3800930E37005C0E3500270E3478
:1027700000F30D3200C10D3100900D3000600D2EC0
:1027800000320D2D00050D2C00D90C2B00AE0C29AC
:1027900000850C29005C0C2700350C27000E0C2648
:1027A00000E80B2400C40B2400A00B23007D0B23A6
:1027B000005A0B2100390B2100180B2000F80A1FCA
:1027C00000D90A1E00BB0A1E009D0A1D00800A1DBA
:1027D00000630A1C00470A1B002C0A1B00110A1A7E
:1027E00000F7091A00DD091900C4091900AB09191D
:1027F00000920917007B091800630917004C09169D
:102800000036091600200916000A091500F50815FA
:1028100000E0081400CC081400B8081400A4081440
:1028200000900813007D0812006B0813005808126E
:102830000046081200340811002308110012081184
:102840000001081100F0071000E0071000D0071089
:1028500000C0071000B0070F00A107100091070E7D
:102860000083070F0074070F0065070E0057070E5F
:102870000049070E003B070D002E070E0020070D34
:102880000013070D0006070D00F9060C00ED060DFC
:1028900000E0060C00D4060C00C8060C00BC060CB8
:1028A00000B0060C00A4060B0099060C008D060B68
:1028B0000082060B0077060B006C060B0061060A0F
:1028C0000057060B004C060A0042060A0038060AAA
:1028D000002E060A0024060A001A060A001006093D
:1028E0000007060A00FD050900F4050900EB0509CB
:1028F00000E2050900D9050900D0050900C705094E
:1029000000BE050900B5050800AD050800A50509CC
:10291000009C050800940508008C05080084050843
:10292000007C050800740508006C050700650508B3
:10293000005D050700560508004E0507004705071E
:10294000004005080038050700310507002A050783
:1029500000230507001C050600160507000F0507E4
:10296000000805060002050700FB040600F5040741
:1029700000EE040600E8040600E2040700DB04069B
:1029800000D5040600CF040600C9040600C30406EF
:1029900000BD040600B7040600B1040500AC04063F
:1029A00000A6040600A00405009B0406009504058B
:1029B00000900406008A04050085040500800406D2
:1029C000007A04050075040500700405006B040519
:1029D0000066040500610405005C04050057040559
:1029E00000520405004D0405004804050043040599
:1029F000003E0404003A04050035040500300404D8
:102A0000002C04050027040400230405001E040410
:102A1000001A04040016040500110404000D040447
:102A200000090405000404040000040400FC03047D
:102A300000F8030400F4030400F0030400EC0304B2
:102A400000E8030400E4030400E0030400DC0304E2
:102A500000D8030400D4030400D0030400CC030412
:102A600000C8030300C503030020436F756E742084
:102A7000583A0023646566696E65204445464155B1
:102A80004C545F0000626564004B6420004B692079
:102A9000004B7020005049442074756E696E6720A9
:102AA000646F6E65002066696E69736865642120D5
:102AB00050757420746865206C617374204B702CA1
:102AC000204B6920616E64204B6420636F6E7374C9
:102AD000616E74732066726F6D2062656C6F772013
:102AE000696E746F20436F6E666967757261746991
:102AF0006F6E2E680A00504944204175746F7475DA
:102B00006E6500206661696C6564212074696D657D
:102B10006F75740A00504944204175746F74756E66
:102B200065004175746F74756E65206661696C65CA
:102B300064212054696D656F75742E00206661698B
:102B40006C6564212054656D706572617475726581
:102B500020746F6F20686967680A005049442041FB
:102B600075746F74756E6500504944204379636CC9
:102B700065730025532025692F256900204B643A91
:102B80002000204B693A2000204B703A200020435F
:102B90006C617373696320504944200A00204E6FB2
:102BA000206F76657273686F6F740A002054753AEF
:102BB0002000204B753A2000206D61783A200020DB
:102BC0006D696E3A200020643A20002062696173CA
:102BD0003A200048656174696E672E2E2E002073BE
:102BE000746172740A00504944204175746F7475A1
:102BF0006E65004175746F74756E65206661696CF1
:102C00006564212054656D7065726174757265200C
:102C1000746F6F20686967682E00206661696C6553
:102C200064212054656D70657261747572652074DD
:102C30006F6F20686967680A0050494420417574C5
:102C40006F74756E65004265640045310045006231
:102C50006564002C2073797374656D2073746F70D4
:102C600070656421204865617465725F49443A204B
:102C7000004572723A204D415854454D50004D4127
:102C80005854454D502074726967676572656400D9
:102C900048656174696E67204661696C65640048C7
:102CA000656174696E67206661696C6564004D35A5
:102CB0003234004D3131322053687574646F776E51
:102CC000001000C90210012C0140012201700118FE
:102CD00001B0010E01F00104015002FA00B002F04F
:102CE000003003E600D003DC009004D2007005C879
:102CF00000A006BE000008B400B009AA00D00BA0D6
:102D000000600E960060118C00001582002019787A
:102D100000C01D6E00A0226400B0275A00902C5005
:102D20000000314600E0343C0010383200903A2870
:102D300000603C1E00A03D1400803E0A00203F00C1
:102D4000004572723A204D494E54454D50004D4950
:102D50004E54454D50207472696767657265640012
:102D6000544845524D414C2052554E41574159000F
:102D7000546865726D616C2052756E61776179007F
:102D8000202F002042403A0020403A0020573A00CD
:102D900020573A00496E76616C69642065787472D8
:102DA000756465720A007C3C3E5E2B3D3F2F5B5D87
:102DB0003B2C2A225C0043616E6E6F74206F70653D
:102DC0006E2073756264697220004D6564696120CC
:102DD000496E6974204661696C00534420636172D6
:102DE00064206F6B0A006F70656E526F6F7420669F
:102DF00061696C65640A00766F6C756D652E696E2D
:102E00006974206661696C65640A004E6F205344E2
:102E100020636172640A005344206361726420720B
:102E2000656C65617365640A000A4D3234004D3289
:102E300033202573002E0A006F70656E206661696D
:102E40006C65642C2046696C653A200046696C65A7
:102E50002073656C65637465640A002053697A6544
:102E60003A200046696C65206F70656E65643A2093
:102E700000454E4420535542524F5554494E450A41
:102E8000002220706F73002220706172656E743AA8
:102E90002200535542524F5554494E452043414C10
:102EA0004C207461726765743A22005375626361E5
:102EB0006C6C204F766572666C6F77004578636541
:102EC00065646564206D617820535542524F5554B6
:102ED000494E452064657074683A002E0A004465C6
:102EE0006C6574696F6E206661696C65642C204640
:102EF000696C653A200046696C652064656C657490
:102F000065643A004E6F74205344207072696E7489
:102F1000696E670A005344207072696E74696E6747
:102F20002062797465200057726974696E67207435
:102F30006F2066696C653A2000667265736800648C
:102F40006F696E67002066696C653A20004E6F7786
:102F500020002F6175746F25632E67002020506C50
:102F6000616E6E65724275666665724279746573EC
:102F70003A20002046726565204D656D6F72793A82
:102F8000200020436F6D70696C65643A204A756E4D
:102F900020203120323032340A00204C61737420FA
:102FA000557064617465643A20323032332D3032AA
:102FB0002D3033207C20417574686F723A2054693B
:102FC0006E794D616368696E657333440A004D61C3
:102FD000726C696E204457372E342E370A00205306
:102FE0006F6674776172652052657365740A00209C
:102FF0005761746368646F672052657365740A0073
:103000002042726F776E206F7574205265736574FD
:103010000A002045787465726E616C205265736594
:10302000740A00506F77657255700A00737461728C
:10303000740A004739310A47315A350A4739300A8C
:103040004D38340A4D31303453300A4D3134305319
:1030500030004D31303031006572726F72207772FE
:103060006974696E6720746F2066696C650A004434
:103070006F6E6520736176696E672066696C652E78
:103080000A004D323900456E6473746F7073002509
:103090005320256320256320256320256300205AC3
:1030A0003A0020593A0020583A00656E6473746FF4
:1030B0007073206869743A200068616E646C6520E2
:1030C00077616974776179203D3D0020202A2A2AA2
:1030D0002A2A2A2A5254535F48616E646C654461FF
:1030E00074612A2A2A2A2A2A2A2A2000202D2064CA
:1030F00034200064333A2000202D20643220006404
:10310000313A2000202D206C656E20005650207230
:10311000656365697665643A20002A2A2A4E6F7ACB
:103120007A6C6554656D705374617475735B325D50
:10313000203D003D3D48656174696E6720446F6EB7
:1031400065204368616E67652046696C616D656ED8
:10315000743D3D002020737461727470726F6772E9
:1031600065737320004D32320A4D3231003D3D7798
:1031700061697477617920353D3D003D3D77616936
:103180007477617920343D3D003D3D776169747706
:10319000617920333D3D003D3D7761697477617908
:1031A00020313D3D00436F6E6669726D20436F6E46
:1031B00074696E75650050617573655374617475DB
:1031C0007300524553554D45204F5054494F4E536F
:1031D0003A0048656174696E672E2E2E0000004328
:1031E0006C69636B20746F20686561740000005225
:1031F0006573756D696E672E2E2E00000050757216
:1032000067696E672E2E2E000000496E736572741A
:1032100020616E6420436C69636B000000436C693D
:10322000636B20746F20636F6E74696E7565000048
:1032300000456A656374696E672E2E2E000000508B
:103240006C6561736520776169742E2E2E00000015
:103250005061726B696E672E2E2E0000002A2A2A9A
:10326000496E6974696E67206361726420697320B6
:103270004F4B2A2A2A003D3D6F6E5072696E74547E
:10328000696D657253746F707065643D3D003D3DBE
:103290006F6E55736572436F6E6669726D526571BC
:1032A00075697265643D3D005061757365204D6FB1
:1032B000646520537461747573004C6F6164696E4A
:1032C000672E2E2E0000003D3D6F6E466163746FC9
:1032D000727952657365743D3D00270A0A00002724
:1032E0002027002027002D0063616E63656C00506D
:1032F00072696E742041626F727465640055492072
:1033000041626F7274656400726573756D65004D1E
:103310003234002A2A2A43506C617920546F6E653A
:103320002A2A2A003D3D6F6E5072696E7454696D91
:1033300065725061757365643D3D00486F6D696EDF
:1033400067204661696C65640050524553454E5490
:10335000004F5554006F70656E0054524947474501
:10336000524544003A20004D4F54494F4E203A20D8
:10337000004F46460A003A200066696C616D656E32
:1033800074007A5F6D696E00795F6D696E00785FB9
:103390006D696E005265706F7274696E6720656E3C
:1033A0006473746F70207374617475730A00207491
:1033B0006F6F206C6F6E6720657874727573696FBC
:1033C0006E2070726576656E7465640A0020636FA6
:1033D0006C6420657874727573696F6E20707265A5
:1033E00076656E7465640A00486F6D6520257320EC
:1033F0004669727374005761726E696E673A20484D
:103400006F6D696E672042756D70204469766973CF
:103410006F72203C20310A0002020400000000000C
:103420000000000000000000809D4300009B43005E
:1034300000C843000000410000004100000040FFC0
:10344000FFFF000000010000000100008000555552
:1034500055000000400033333300AAAA2A004992E5
:10346000240000002000C7711C0099991900D14563
:103470001700555515003BB11300244912001111D6
:103480001100000010000F0F0F00E3380E00437909
:103490000D00CCCC0C00C3300C00E8A20B00642162
:1034A0000B00AAAA0A00703D0A009DD80900427BC1
:1034B000090092240900DCD3080088880800104223
:1034C000080000000800F0C107008787070075505A
:1034D0000700711C07003EEB0600A1BC06006990C6
:1034E000060066660600703E06006118060017F4C6
:1034F000050074D105005BB00500B2900500627252
:1035000005005555050078390500B81E050005056C
:1035100005004EEC040087D40400A1BD040090A770
:10352000040049920400C17D0400EE690400C756FE
:103530000400444404005C320400082104004110EB
:103540000400000004003FF00300F8E0030026D26E
:103550000300C3C30300CCB503003AA803000A9BD1
:103560000300388E0300C08103009F750300D069FB
:103570000300505E03001D53030034480300913DD7
:1035800003003333030016290300381F0300971587
:103590000300300C0300030303000BFA020049F19F
:1035A0000200BAE802005CE002002DD802002DD033
:1035B000020059C80200B0C0020031B90200DAB1FD
:1035C0000200AAAA0200A0A30200BC9C0200FA9575
:1035D00002005C8F0200DF88020082820200457CCC
:1035E00002002776020027700200436A02007C6412
:1035F0000200D05E02003F590200C8530200FFFDE6
:10360000FCFAF8F6F4F2F0EEECEAE9E7E5E3E1E0E3
:10361000DEDCDAD9D7D5D4D2D0CFCDCBCAC8C7C596
:10362000C3C2C0BFBDBCBAB9B7B6B4B3B2B0AFAD18
:10363000ACAAA9A8A6A5A4A2A1A09E9D9C9A99986F
:103640009795949392908F8E8D8B8A8988878684A4
:10365000838281807F7E7D7B7A79787776757473BB
:103660007271706F6E6D6C6B6A69686766656463B2
:103670006261605F5E5D5C5B5A595858575655549D
:1036800053525150504F4E4D4C4B4A4A4948474671
:1036900046454443424241403F3E3E3D3C3B3B3A2F
:1036A00039383837363535343332323130302F2EE1
:1036B0002E2D2C2B2B2A2929282727262525242384
:1036C0002322212120201F1E1E1D1C1C1B1B1A191A
:1036D00019181817161615151413131212111110A4
:1036E0000F0F0E0E0D0D0C0C0B0A0A090908080726
:1036F00007060605050404030302020100003D3D20
:103700006F6E5072696E7454696D65725374617234
:103710007465643D3D0053544F505045442E200085
:103720005072696E7465722073746F707065642076
:1037300064756520746F206572726F72732E2046F7
:10374000697820746865206572726F7220616E649A
:1037500020757365204D39393920746F2072657377
:10376000746172742E202854656D70657261747571
:1037700072652069732072657365742E20536574B9
:103780002069742061667465722072657374617259
:1037900074696E67290A00206572726F72202D208D
:1037A000726573746172742077697468204D393959
:1037B000390A00424C546F7563680021212053542C
:1037C0004F502063616C6C65642062656361757342
:1037D00065206F66200000809D4300009B43000031
:1037E000C84300000000000000000000000053611A
:1037F00076696E67204457494E204C4344207365D8
:103800007474696E672066726F6D20454550524F23
:103810004D0A003D3D6F6E53657474696E67735356
:10382000746F7265643D3D0053657474696E6773AF
:103830002053746F72656400290A002062797465F0
:10384000733B20637263200053657474696E677301
:103850002053746F7265642028000A20696E6974B1
:10386000207A70726F62655F7A6F66667365742026
:103870003D20003D3D6F6E436F6E666967757261F6
:1038800074696F6E53746F7265526561643D3D007B
:10389000454550524F4D20496E697469616C697A93
:1038A00065640A0048617264636F646564204465FE
:1038B0006661756C742053657474696E6773204C0F
:1038C0006F616465640020286D6D2900203B204CE9
:1038D0006576656C696E67200020204D343230209B
:1038E00053004175746F20426564204C6576656CA9
:1038F000696E670020204D393030204B004C696ED6
:1039000065617220416476616E636500205000201D
:10391000440020204D35393120530046696C616DDB
:10392000656E742072756E6F75742073656E736F3B
:103930007200204A002020473239205720490020B9
:10394000204D3134392043203B20556E697473205B
:10395000696E2043656C736975730A0054656D70F8
:103960006572617475726520556E697473002020EC
:10397000473231203B004C696E65617220556E699B
:1039800074730000CE00900111241FBECFEFD1E26E
:10399000DEBFCDBF00E00CBF84B78093DA1914BE40
:1039A0000FB6F894A89580916000886180936000BC
:1039B000109260000FBE16E0A0E0B2E0E4E9F1E989
:1039C00002E00BBF02C007900D92A833B107D9F7F0
:1039D00029E1A8E3B6E001C01D92AA3DB207E1F7D4
:1039E0001CE1C3ECDCE100E006C021970109802F57
:1039F000FE010F94F744C23CD10780E00807A9F705
:103A00000F94C0310D94B8480C940000CF93DF930D
:103A1000C0911413D091151381E0CE31D105E4F09B
:103A200020E030E040E05FE36091101370911113EB
:103A300080911213909113130F9400450F946C46CC
:103A40006C1B7D0B77FF03C071956195710981E057
:103A5000633071050CF080E0DF91CF910895CF9332
:103A6000DF93DB01F9019C919130C1F0943080F03B
:103A700094509C938830D1F480819181009771F0AB
:103A8000019791838083480F591FEA01188206C06D
:103A90008C3539F49C5F9C93943041F4DF91CF9145
:103AA00008958B3339F781E08C93F8CF20813181F1
:103AB000B9016F5F7F4F71836083420F531FEA012B
:103AC0008883808191818F3591056CF7E7CF0F93C3
:103AD0001F9381E000919D1510919E1520919F15D7
:103AE0003091A0154091991550919A1560919B15B0
:103AF00070919C15041715072607370708F480E016
:103B00001F910F91089590E080E0089520914A0759
:103B1000833021F425FD0CC024FD0CC030E0A90148
:103B200002C0559547958A95E2F7CA0181700895BC
:103B300081E0089580E008958091650784FD0BC0C1
:103B40008091670787FD07C090916807937081E0B7
:103B500019F480E0089581E00895CF92DF92EF920A
:103B6000FF92CF93DF93EC01CC80DD80EE80FF806D
:103B700027E137EB41ED58EBC701B6010F946047E1
:103B800087FD23C023E030E04BE953E4C701B601D1
:103B90000F941C3E1816CCF0C880D980EA80FB80B8
:103BA00027E137EB41ED58EBC701B6010F946047B1
:103BB00087FD0BC0C1E023E030E84DE953E4C701C5
:103BC000B6010F941C3E18160CF4C0E08C2FDF9148
:103BD000CF91FF90EF90DF90CF900895682F70E025
:103BE00090E080E00F94233E2091A9193091AA190A
:103BF0004091AB195091AC190F94823E2091A119BC
:103C00003091A2194091A3195091A4190F94004525
:103C10000895682F70E090E080E00F94233E20919B
:103C2000A5193091A6194091A7195091A8190F9480
:103C3000823E20919D1930919E1940919F1950917B
:103C4000A0190F94004508952FEB280F2A3108F092
:103C500047C0E22FF0E08091650790916607A09140
:103C60006707B091680704C0B695A79597958795A3
:103C70002A95D2F780FD02C081700895E55BF84F68
:103C8000E081EE2341F18091500D9091510DE80FAC
:103C9000F92FF11D808190ED980F9A3030F08E321F
:103CA00051F4818180538A3098F4F0933B07E0937C
:103CB0003A0781E008958D3211F08B3249F4818109
:103CC00090ED980F9A3088F38E3211F48281EACF0A
:103CD000F0E0E0E0EACF10923B0710923A07E9CF1C
:103CE00080E008950E94241E882341F081E0209105
:103CF0003A0730913B07232B09F480E00895809127
:103D0000941981110EC020916802309169022150EE
:103D1000310981E0409140135091411342175307FC
:103D20000CF080E00895269A2E9A08952F923F92E3
:103D30004F925F926F927F928F929F92AF92BF92BB
:103D4000CF92DF92EF92FF920F931F93CF93DF9367
:103D5000D62FC72FFC0180809180A280B380C5013F
:103D6000B40120E831E541E050E00F946044C9011E
:103D70006DE671E00F94CF446B017C01C501B40185
:103D800020E13EE040E050E00F946044CA01B901F8
:103D900028E130E040E050E00F946044362E272EBA
:103DA000062F172F8CE3482E512C612C712CC50146
:103DB000B401A30192010F946044B62EA72ECA014C
:103DC000B901A30192010F946044CB01C114D10445
:103DD00079F1AF92BF927F936F932F923F92FF92B0
:103DE000EF92DF92CF928FEA95E19F938F93CF93DB
:103DF000DF930F94B33D8DB79EB70E960FB6F89430
:103E00009EBF0FBE8DBF8D2F9C2FDF91CF911F9135
:103E10000F91FF90EF90DF90CF90BF90AF909F9069
:103E20008F907F906F905F904F903F902F9008956C
:103E3000E114F104C9F0AF92BF927F936F932F9278
:103E40003F92FF92EF928FE995E19F938F93CF93EB
:103E5000DF930F94B33DEDB7FEB73C960FB6F894E1
:103E6000FEBF0FBEEDBFCFCF012BB9F0AF92BF9217
:103E70007F936F932F923F9283E995E19F938F9366
:103E8000CF93DF930F94B33D8DB79EB70A960FB6CD
:103E9000F8949EBF0FBE8DBFB6CF892BA9F0AF920D
:103EA000BF927F936F938BE895E19F938F93CF930E
:103EB000DF930F94B33DEDB7FEB738960FB6F89485
:103EC000FEBF0FBEEDBF9FCFAF92BF9287E895E1D7
:103ED0009F938F93CF93DF930F94B33D0F900F90E9
:103EE0000F900F900F900F908ECFAB01BC014093BD
:103EF0009D1550939E1560939F157093A01585E0B6
:103F000097E10C94D7CB0F931F93CF93DF9300D0FF
:103F10001F92CDB7DEB79C010EE81CE090E1E6E50C
:103F2000FDE0D80101900D929A95E1F7F901208109
:103F3000318142815381F801608571858285938545
:103F40000F940045F801608771878287938780E02E
:103F500090E0A0EAB0E489839A83AB83BC83CE016E
:103F600001960F9461050F900F900F900F90DF91C5
:103F7000CF911F910F9108952F923F924F925F9290
:103F80006F927F928F929F92AF92BF92CF92DF9269
:103F9000EF92FF921F93CF93DF93CDB7DEB72C97AD
:103FA0000FB6F894DEBF0FBECDBF7A011901DC0158
:103FB0002D913D914D915C912D833E834F83588788
:103FC000FB0140805180628073808090560D9090FC
:103FD000570DA090580DB090590DA50194016D8119
:103FE0007E818F8198850F941C3E81110EC011E057
:103FF000A301920160915A0D70915B0D80915C0D4F
:1040000090915D0D0F941C3E811110E0D1012D9116
:104010003D914D915C9129873A874B875C87F701E9
:10402000C080D180E280F3802091020230910302AF
:104030004091040250910502C701B6010F941C3E45
:10404000882309F44EC0C0920202D0920302E0928B
:104050000402F09205028091620D9091630DA0918F
:10406000640DB091650D40915A0D50915B0D6091BA
:104070005C0D70915D0D80928E0C90928F0CA092D1
:10408000900CB092910C4093920C5093930C6093CF
:10409000940C7093950CC092960CD092970CE09271
:1040A000980CF092990C80939A0C90939B0CA0938F
:1040B0009C0CB0939D0C20E030E040E05FE3609109
:1040C0002F0D7091300D8091310D9091320D0F9424
:1040D000823E69837A838B839C83CE0101960F9401
:1040E00061052D813E814F81588520938E0C309340
:1040F0008F0C4093900C5093910C4092920C5092E4
:10410000930C6092940C7092950CD1012D913D917D
:104110004D915C9160919A0C70919B0C80919C0CDC
:1041200090919D0C0F94004560939A0C70939B0C9A
:1041300080939C0C90939D0C11112FC020E030E0D7
:10414000A90169857A858B859C850F941C3E811118
:1041500033C060E070E088EC92E469837A838B83FB
:104160009C83CE0101960F9461052C960FB6F894AE
:10417000DEBF0FBECDBFDF91CF911F91FF90EF90BB
:10418000DF90CF90BF90AF909F908F907F906F9077
:104190005F904F903F902F9008952AEF3EE74AE2BC
:1041A0005FE36091330D7091340D8091350D9091E6
:1041B000360D0F94823ED1CF60E070E080EA91E44A
:1041C000CCCFCF93DF9300D01F92CDB7DEB780E086
:1041D00090E0A0EAB0E489839A83AB83BC8361E07A
:1041E000CE0101960F94EB060F900F900F900F9059
:1041F000DF91CF910895AF92BF92CF92DF92EF926D
:10420000FF920F931F93CF935C016B018A01805340
:10421000994F7C01DC01CC91C7FF3DC0FB011182AD
:104220001082CF5FD701CC93CC300CF053C08CE020
:104230008A9DF0018B9DF00D1124CF018C0F911DF3
:10424000C7FD9A952091AC132817190609F00CF4B4
:1042500041C0F60120813181FC01EE0FFF1FE80F04
:10426000F91FEC59FC4E81819281820F931FD80176
:1042700011969C938E93808187FF3DC061E08F777C
:10428000CF911F910F91FF90EF90DF90CF90BF9053
:10429000AF900C94969A8CE08A9DF0018B9DF00D66
:1042A0001124CF018C0F911DC7FD9A952091AC135D
:1042B0002817190609F00CF4B4CFFC01EE0FFF1F0C
:1042C000E80FF91FEC59FC4E808160E08F770E9467
:1042D000969AA7CFF6018081918104968034FCE9FB
:1042E0009F0710F480E49CE9D80111969C938E936B
:1042F0008FEFF7018083CF911F910F91FF90EF9087
:10430000DF90CF90BF90AF90089580913A07909141
:104310003B07009731F04AE050E070E060E00D9418
:10432000373C60E070E0CB0108950F931F93CF936B
:10433000DF9300D000D01F921F92CDB7DEB78B0164
:10434000FC0123A5211102C00E949A841D821E82B5
:104350001F82188620E030E040E05FE360915E0D50
:1043600070915F0D8091600D9091610D0F940045EB
:1043700069837A838B839C839E012B5F3F4FAE01C1
:104380004F5F5F4F6AE57DE086E59DE00E94BC1FC0
:104390001D821E821F82188620E030E040E05FE32D
:1043A000F80160857185828593850F940045698346
:1043B0007A838B839C83B8016C5F7F4F9E012B5F58
:1043C0003F4FAE014F5F5F4FC8010E94BC1F289650
:1043D0000FB6F894DEBF0FBECDBFDF91CF911F9116
:1043E0000F91089580913A0790913B07009731F023
:1043F0004AE050E070E060E00D94093B60E070E05E
:10440000CB010895CF93DF93EB010E94721E8823A6
:1044100019F00E94F221EB01CE01DF91CF910895B6
:104420000E94F22197FD0CC00E94F2216F3F71059E
:104430008105910509F034F40E94F221862F089538
:1044400080E008958FEF0895CF93C62F0E94721ECB
:10445000882319F0CF910C9410228C2FCF910895BE
:1044600080913A0790913B07892B41F00E941022DE
:1044700091E0811101C090E0892F089591E0FCCF77
:10448000CF93DF93C82FD62F0E94721E882321F06E
:10449000DF91CF910C9430228C2F0E94241E811129
:1044A00001C08D2FDF91CF9108950E94F221CB01A1
:1044B0000895CF93DF93EB010E94721E882321F0B1
:1044C000DF91CF910C945522CE01DF91CF910895C9
:1044D0000F931F93CF9380913A0790913B070097DA
:1044E00009F1FC018F01C1912C2F2F7DA1F0C53462
:1044F00031F0C53621F0C83511F0C83799F7F80109
:10450000108270E060E00F94AB39F801C083CF9166
:104510001F910F91089570E060E0CF911F910F916E
:104520000D94AB3960E070E0CB01F1CFCF92DF9218
:10453000EF92FF926A017B010E94721E882331F084
:10454000FF90EF90DF90CF900C946822C701B601E6
:10455000FF90EF90DF90CF90089580917A188111AD
:1045600003C081E00F94480A80E008958F929F92E3
:10457000AF92BF92CF92DF92EF92FF920F931F9371
:10458000CF93DF9310926A07109269072FE320936D
:104590006E0710926D0710926C0710926B071092C5
:1045A00065071092660710926707109268079C01D2
:1045B000F90190812F5F3F4F9032D1F39E34C9F4BF
:1045C000818190ED980F9A3020F08D3211F08B326E
:1045D00081F432969F012F5F3F4F808180538A3054
:1045E00008F47BC09F012F5F3F4F8081803209F428
:1045F00076C0F093510DE093500D8F010F5F1F4F68
:10460000C0816AE270E0C8010F944E48009731F013
:10461000FC01319780818032E1F31182CD3429F0A1
:10462000C43519F0C73409F04BC0F80180810F5F21
:104630001F4F8032D1F380538A3008F041C0C093BD
:104640006E0730E020E04AE0DF011196429FC00192
:10465000439F900D11249C01205331098081280F24
:10466000311D87FD3A95818190ED980F9A30C8F100
:1046700030936D0720936C078E3261F4329690E090
:104680004AE0DF0131968C9150ED580F5A3058F1C5
:1046900090936B07CD01DC0101964C914032D9F328
:1046A000CD3489F52E31310539F018F52731310532
:1046B00019F02C31310539F5B0936A07A0936907D9
:1046C000DF91CF911F910F91FF90EF90DF90CF90EE
:1046D000BF90AF909F908F900895F9017BCFF90123
:1046E00081CFFD01B1CF949F800D112490ED980FE3
:1046F000C8CF2537310538F027373105E8F2203AA1
:1047000083E03807C9F2D091500D40E050E0BA0183
:1047100010E000E0C12CD12C7601C394FD0131964C
:104720008C91882309F47FC08132E1F4CD34D1F437
:1047300020323105B9F440936507509366076093C2
:10474000670770936807F0936A07E093690763E26D
:1047500070E0CF010F944E48009709F4B1CFFC01EF
:104760001082AECF81548A3108F058C0DF019D918C
:10477000903291F0A0EDA90FAA30E8F09E3271F4CA
:10478000918190539A30B8F00115110519F48F01F9
:104790000150110990E013C0FD01E8CF9D3211F0E6
:1047A0009B3291F79181A0EDA90FAA3020F09E32A3
:1047B00059F79281E6CF9E2F9D1B309759F3A82F72
:1047C000B0E04601570104C0880C991CAA1CBB1C10
:1047D0008A95D2F7482959296A297B29A55BB84FC0
:1047E0009C9380818154DF018A3108F497CFDF01E7
:1047F0008191882309F492CF90ED980F9A30B8F305
:1048000093ED980F923098F38B3289F3CD01019696
:10481000EC91E03209F082CFDC01F8CF01151105EF
:1048200001F78D01DECF10936A070093690740936B
:10483000650750936607609367077093680740CFDA
:1048400081E0809343130895FC01659175918591F2
:104850009491089580917A18882319F080E00F943C
:10486000480A80E00895682F70E090E080E00C94A2
:10487000FF7A9B01AC01485F5F4FBC016C5F7F4FCB
:104880000C94BC1F2F923F924F925F926F927F9237
:104890008F929F92AF92BF92CF92DF92EF92FF9250
:1048A0000F931F93CF93DF93CDB7DEB7A6970FB6C5
:1048B000F894DEBF0FBECDBF8C011B015A8749871C
:1048C0004090560D5090570D6090580D7090590DB6
:1048D00080905A0D90905B0DA0905C0DB0905D0D96
:1048E000DB018D919D910D90BC91A02D8B8B9C8BAC
:1048F000AD8BBE8B9C01AD01C301B2010F94FF448F
:104900006B017C01D10114968D919D910D90BC910C
:10491000A02D8F8B988FA98FBA8F9C01AD01C501F7
:10492000B4010F94FF446B8F7C8F8D8F9E8FA98570
:10493000BA858D919D910D90BC91A02D8B879C8700
:10494000AD87BE879C01AD01C301B2010F94FF4446
:104950006F8F78A389A39AA3A985BA8514968D91A0
:104960009D910D90BC91A02D8F87988BA98BBA8BB0
:104970009C01AD01C501B4010F94FF446BA37CA35E
:104980008DA39EA3A7019601C701B6010F94823E95
:104990006B017C012B8D3C8D4D8D5E8DCA01B90163
:1049A0000F94823E9B01AC01C701B6010F940045F4
:1049B0004B015C012B893C894D895E896B857C8527
:1049C0008D859E850F94FF442B013C012F89388DE6
:1049D000498D5A8D6F85788989899A890F94FF440A
:1049E0006B017C01A3019201C301B2010F94823ECD
:1049F0002B013C01A7019601C701B6010F94823E2D
:104A00009B01AC01C301B2010F9400450F94AE4766
:104A10006B017C012F8D38A149A15AA1CA01B901AE
:104A20000F94823E2B013C012BA13CA14DA15EA124
:104A3000CA01B9010F94823E9B01AC01C301B201CE
:104A40000F9400459B01AC01C501B4010F94604770
:104A50001816B4F520E030E0A901C701B6010F94A3
:104A6000604787FF2AC0C701B601905820E030E0B8
:104A700040EA50E40F946047181614F5A1016985C7
:104A80007A85C8010E944224A6960FB6F894DEBF2C
:104A90000FBECDBFDF91CF911F910F91FF90EF908F
:104AA000DF90CF90BF90AF909F908F907F906F904E
:104AB0005F904F903F902F900895C701B601D6CFD9
:104AC00020E030E040E050E4C501B4010F946047BD
:104AD000181624F4B101C8010E94952119821A8286
:104AE0001B821C82BE016F5F7F4FC1010E9439246F
:104AF0002DEC3CEC4CEC5CE3C701B6010F94823E1C
:104B00009B01AC01F80160817181828193810F94D6
:104B1000823E6D837E838F839887D8019B968C918C
:104B20009B978823C9F02AE939E949E95FE314969C
:104B30006D917D918D919C9117970F94823E698321
:104B40007A838B839C83BE016F5F7F4F8EE89CE0EE
:104B50000E943924F80113A6BE016B5F7F4F89853F
:104B60009A850E94392490CF4F925F926F927F92E4
:104B70008F929F92AF92BF92CF92DF92EF92FF926D
:104B80000F931F93CF93DF93CDB7DEB768970FB620
:104B9000F894DEBF0FBECDBF7C01FB018081C42E27
:104BA000C80EF4E0FC1508F4B0C0FB01D180022F60
:104BB0000D0D053008F0A9C0ED2DF0E0E05DF84FD7
:104BC000E081F0E0082E02C0F595E7950A94E2F73F
:104BD000E0FF9BC0E02FF0E0E05DF84FE081F0E007
:104BE0000C2C02C0F595E7950A94E2F7E0FF8DC022
:104BF000122F742E0E94091E4B015C01672D660F57
:104C0000770B072E000C880B990B0F94233E2B017A
:104C10003C01AC019B01C501B4010F9400456D87B7
:104C20007E878F87988B8C2D0E94091EA30192018D
:104C30000F94FF4469837A838B839C838D2D0E941C
:104C4000EE1D4B015C01612F660F770B072E000CE8
:104C5000880B990B0F94233E2B013C01AC019B0167
:104C6000C501B4010F940045698B7A8B8B8B9C8BAB
:104C7000802F0E94EE1DA30192010F94FF446D83CB
:104C80007E838F839887F70180859185A285B38580
:104C900089879A87AB87BC878D8B9E8BAF8BB88FAC
:104CA00045E351E061E070E0CE0141960E945AFB7D
:104CB00045E351E061E070E0CE0105960E945AFBA9
:104CC0004AE351E061E070E0CE010D960E945AFB8C
:104CD0004AE351E061E070E0CE0101960E945AFB88
:104CE000CE010D960E94AD1D882379F0CE0101966C
:104CF0000E94AD1D882349F0AE014F5F5F4FBE019A
:104D0000635F7F4FC7010E94422468960FB6F894F4
:104D1000DEBF0FBECDBFDF91CF911F910F91FF90EE
:104D2000EF90DF90CF90BF90AF909F908F907F904B
:104D30006F905F904F900895CF92DF92EF92FF9225
:104D4000CF936B017C01C42F8091B30B8F5F09F46B
:104D5000B5C08093B30B8091B30B8093620C20E0BD
:104D600030E040E752E46091330270913402809168
:104D70003502909136020F94823E0F9473467093E1
:104D8000C50B6093C40BC092C60BD092C70BE092C8
:104D9000C80BF092C90B8091610CC0FB80F9809325
:104DA000610C8CE0ECE7F8E1AAECBBE001900D921D
:104DB0008A95E1F78CE0E7E8F9E1A6EDBBE0019028
:104DC0000D928A95E1F78091A7179091610C80FB75
:104DD00094F99093610C882381F08091A3179091AE
:104DE000A417A091A517B091A6178093E20B9093FA
:104DF000E30BA093E40BB093E50B809140139091EB
:104E000041139093E70B8093E60B809114139091DC
:104E100015139093E90B8093E80B80914C0D8093D0
:104E2000EA0B8091610C9091870C90FB83F9809341
:104E3000610C8091880C9091890CA0918A0CB091A2
:104E40008B0C8093EB0B9093EC0BA093ED0BB0933A
:104E5000EE0B0F94890D60935C0C70935D0C809346
:104E60005E0C90935F0C80914A078093600C909148
:104E700093078091610C93FB81F99091941990FBB9
:104E800082F98093610C80E00E94EBF040E050E0FA
:104E9000BA0186EA95E10E94D7CB40EB50E063EB84
:104EA0007BE086EA95E10E946BCC86EA95E1CF91A2
:104EB000FF90EF90DF90CF900C9498CF81E049CF96
:104EC0004F925F926F927F928F929F92AF92BF921A
:104ED000CF92DF92EF92FF920F931F93CF93DF93C6
:104EE00000D01F92CDB7DEB719821A821B821C82B6
:104EF00098E9892E92E0992ECE0101965C012EE868
:104F0000C22E2CE0D22E36E5E32E3DE0F32E10E04B
:104F100000E0F40181914F010E94721EF50181931E
:104F20005F01882309F4EDC00E9468222B013C0137
:104F3000802F0E94861D882309F4D3C0F7012081A9
:104F4000318142815381C301B2010F940045F601C2
:104F500060837183828393830F5F1F4FF4E0CF0ED2
:104F6000D11C84E0E80EF11C0330110591F685E4B4
:104F70000E94721E8C83882309F4CEC00E9468228E
:104F80006B017C0183E00E94861D882371F02091D3
:104F9000620D3091630D4091640D5091650DC70114
:104FA000B6010F9400456B017C01C0929A0CD0921F
:104FB0009B0CE0929C0CF0929D0C8091630C8823DA
:104FC00091F18091A11582FF2EC087FD2CC08C81AC
:104FD000882349F18981811103C08A81882319F1CD
:104FE0002DEC3CEC4CE45DE36091BC0B7091BD0B8F
:104FF0008091BE0B9091BF0B0F9400459B01AC01BB
:1050000060915E0D70915F0D8091600D9091610DCA
:105010000F94604718163CF440E060E070E080E0D8
:1050200090E40E949C2640E050E0BA0186E40E9491
:10503000962220E030E0A9010F946047181684F40E
:105040000E94682220E030E040E752E40F94FA45E5
:10505000609333027093340280933502909336024A
:105060008091930783FD28C080916618882321F1E1
:105070002091620D3091630D4091640D5091650D4A
:1050800060919A0C70919B0C80919C0C90919D0C5E
:105090000F94FF4420917318309174184091751843
:1050A000509176180F94004560937318709374189C
:1050B00080937518909376180F900F900F900F9023
:1050C000DF91CF911F910F91FF90EF90DF90CF90E4
:1050D000BF90AF909F908F907F906F905F904F9018
:1050E0000895F801EE0FFF1FEE0FFF1FEA59F24F70
:1050F0002081318142815381C301B2010F94FF4469
:1051000026CFF70180819181A281B381F60180834E
:105110009183A283B38320CF8091620D9091630D20
:10512000A091640DB091650D80939A0C90939B0CA7
:10513000A0939C0CB0939D0C40CFE3EBFBE080EB85
:10514000DF011D928A95E9F708958091630C811122
:1051500004C00E949D280C9477F18091A11582FFD4
:1051600009C087FD07C040E060E070E080E090E4A7
:105170000C949C2608958091B30B882361F0909144
:10518000620C891308C08091A11584FF04C08FEEC2
:105190009BE00C944DD380E00895FC012381211104
:1051A0000C9498CF0895CF93DF93C0914013D09182
:1051B0004113209729F160913C1370913D13809128
:1051C0003E1390913F130F946C466E5F7F4F249770
:1051D0006C177D07ACF47093EB176093EA170E948D
:1051E000339B605A75418F4F9F4F6093EC177093BC
:1051F000ED178093EE179093EF17DF91CF910895FD
:105200001092EC171092ED171092EE171092EF1704
:10521000F4CFCF92DF92EF92FF921F93CF93DF9361
:10522000182F662351F010922F0710922B0710921F
:105230002C0710922D0710922E070E94339B6B01B2
:105240007C0180912B0790912C07A0912D07B091A4
:105250002E07A7019601281B390B4A0B5B0BDA01BD
:10526000C901B7FD3DC020912F0717FD13C0412F85
:10527000012E000C550B4C5F5F4F822F022E000C4D
:10528000990B4817590764F184EF91E0A0E0B0E072
:10529000211724F488EE93E0A0E0B0E08C0D9D1D72
:1052A000AE1DBF1D80932B0790932C07A0932D0755
:1052B000B0932E072170C22F30E0D32F84E28C9F51
:1052C000B0018D9F700D7C1B112460597C4F82E3CF
:1052D00090E00F94931380912F078F5F80932F0797
:1052E000DF91CF911F91FF90EF90DF90CF900895C5
:1052F000CF93DF93C0911413D0911513209729F108
:1053000060911013709111138091121390911313E7
:105310000F946C466E5F7F4F24976C177D07ACF43B
:105320007093E1176093E0170E94339B605E7044B6
:105330008D4F9F4F6093E2177093E3178093E417AC
:105340009093E517DF91CF9108951092E217109294
:10535000E3171092E4171092E517F4CFCF93DF9381
:105360009091930793FD41C0C82F83E50E94721E60
:10537000D82F882399F10E9455228C389105C4F5C5
:1053800090931513809314130E947829609114133D
:1053900070911513072E000C880B990B0F94233E68
:1053A0002091101330911113409112135091131347
:1053B0000F94604760E01816F4F489E496E10F94C6
:1053C000EB1461E06C278C2F0E944BD9CC2369F041
:1053D00060E08D2FDF91CF910C9417D5CC2329F06D
:1053E00082E50E94721E8111C6CFDF91CF91089590
:1053F0008CE890E0C5CF8AE396E1E1CFCF93C1E09E
:1054000020E030E0A9016091A5197091A619809162
:10541000A7199091A8190F941C3E811101C0C0E0FA
:105420008C2FCF910895CF93C82F882321F00E940D
:10543000FE298823C9F08091870C8C17A9F00E945F
:105440000EFC86E59DE00E9431FC8091870C91E086
:1054500089278093870C882321F086E59DE00E94B0
:105460009CFACF910D94F707CF9108958F929F9258
:10547000AF92BF92EF92FF920F931F93CF93DF9360
:1054800080E00E94132A1092A1191092A219109282
:10549000A3191092A41910929D1910929E1910929E
:1054A0009F191092A0191092A9191092AA1910927E
:1054B000AB191092AC191092A5191092A61910925E
:1054C000A7191092A8190EE91CE0C0E0812C912CBC
:1054D00080ECA82E8FE7B82E7801D0E0F7018192FA
:1054E0009192A192B1927F016D2F8C2F0E949D828B
:1054F000DF5FD53099F7CF5F0C5E1F4FC53061F786
:10550000DF91CF911F910F91FF90EF90BF90AF90DF
:105510009F908F9008954F925F926F927F928F929B
:105520009F92AF92BF92CF92DF92EF92FF920F9332
:105530001F93CF93DF93EC0120919D1930919E1919
:1055400040919F195091A019688179818A819B812E
:105550000F94FF446B017C012091A1193091A21995
:105560004091A3195091A4196C817D818E819F81F6
:105570000F94FF444B015C01A70196016091230742
:105580007091240780912507909126070F941C3E67
:10559000882309F450C0C0922307D0922407E092D8
:1055A0002507F092260720911B0730911C07409198
:1055B0001D0750911E07C701B6010F94823E2B01B3
:1055C0003C010F94A2466B017C0120E030E0A90170
:1055D0000F941C3E87FD70C020E030E040E450E4B2
:1055E000C701B6010F94604718162CF4C12CD12CBA
:1055F000C0E4EC2EFE2CA7019601C301B2010F946A
:10560000FF446093130770931407809315079093DA
:105610001607C701B6010F946C4660931107062E5A
:10562000000C770B6F5F7F4F6430710514F064E0FE
:1056300070E060930F07D0910D0710911107A5013D
:105640009401609127077091280780912907909114
:105650002A070F941C3E811133C0D11381C02091C1
:10566000F5063091F6064091F7065091F8066091E4
:1056700013077091140780911507909116070F94E6
:10568000823E2091F9063091FA064091FB06509136
:10569000FC060F940045DF91CF911F910F91FF9071
:1056A000EF90DF90CF90BF90AF909F908F907F90C2
:1056B0006F905F904F900895C12CD12C76019BCFB5
:1056C0008092270790922807A0922907B0922A0774
:1056D00020911F0730912007409121075091220708
:1056E000C501B4010F94823E4B015C010F94A246A8
:1056F0006B017C0120E030E0A9010F941C3E87FD86
:10570000F3C020E030E040E450E4C701B6010F945C
:10571000604718162CF4C12CD12CB0E4EB2EFE2CD3
:10572000A7019601C501B4010F94FF4460931707C8
:10573000709318078093190790931A07C701B60151
:105740000F946C4660931207062E000C770B6F5F68
:105750007F4F6430710514F064E070E060931007CF
:10576000C0911207D11305C080910E078C1709F460
:1057700070C0809111079091120790930E0780934B
:105780000D070C2E000CDD0B25E01203C0011124C7
:10579000FC01EC0FFD1FEE0FFF1FEE0FFF1FE25687
:1057A000F34F208131814281538120930907309347
:1057B0000A0740930B0750930C0700911007002E27
:1057C000000C110BFC01E00FF11FEE0FFF1FEE0F9D
:1057D000FF1FE256F34F60817181828193810F94A4
:1057E000FF44609305077093060780930707909323
:1057F000080720910F0735E02303F0011124CE0F95
:10580000DF1FCC0FDD1FCC0FDD1FC256D34F288109
:1058100039814A815B8120930107309302074093CD
:10582000030750930407E00FF11FEE0FFF1FEE0F69
:10583000FF1FE256F34F60817181828193810F9443
:10584000FF446093FD067093FE068093FF069093DD
:1058500000078090170790901807A0901907B09044
:105860001A072091050730910607409107075091CC
:105870000807C501B4010F94823E209109073091B9
:105880000A0740910B0750910C070F9400456B01DC
:105890007C01C092F906D092FA06E092FB06F092E3
:1058A000FC062091FD063091FE064091FF065091C6
:1058B0000007C501B4010F94823E20910107309189
:1058C000020740910307509104070F940045A70178
:1058D00096010F94FF446093F5067093F60680934B
:1058E000F7069093F806BBCEC12CD12C760118CFC9
:1058F000E3E2F7E080EF9FEFA9E7B4EC84839583C0
:10590000A683B78380839183A283B383EDE0F7E01E
:105910008DE98183808308958F929F92AF92BF9289
:10592000CF92DF92EF92FF92FC0198E0A5EAB9E1F5
:1059300001900D929A95E1F788E0FB01ADE9B9E19C
:1059400001900D928A95E1F7C090A519D090A61903
:10595000E090A719F090A81920E030E0A901C70154
:10596000B6010F941C3E8823E1F1A701960160E087
:1059700070E080E89FE30F94FA456B017C01809012
:10598000A9199090AA19A090AB19B090AC1920E079
:1059900030E0A901C501B4010F941C3E882329F110
:1059A000A501940160E070E080E89FE30F94FA4560
:1059B000C0921B07D0921C07E0921D07F0921E07B1
:1059C00060931F077093200780932107909322070D
:1059D000FF90EF90DF90CF90BF90AF909F908F900F
:1059E0000895C12CD12C7601CACF60E070E0CB01C4
:1059F000DFCFEFE6F0E080818260808308958091C0
:105A0000481290914912892B79F480914812909113
:105A10004912892B49F4209148123091491281E0B2
:105A2000232B19F480E0089581E00895CF92DF924E
:105A3000EF92FF926B017C0183E3C816D104E1046D
:105A4000F10470F082E3C81AD108E108F10862E3BA
:105A500070E080E090E00E94009B0E94FEDBECCFB3
:105A6000C701B6010E94009BFF90EF90DF90CF909E
:105A70000C94FEDB1092AF0B8091B8179091B91780
:105A8000A091BA17B091BB178093B4179093B51734
:105A9000A093B617B093B717089590914B12109238
:105AA0004B129230B9F09430C1F09130E1F4882378
:105AB00019F0813021F008959093B00B089582E0A1
:105AC0008093B00B8091AF0B882369F01092A807E8
:105AD0000C943A2D1092B10B08958FE093E39093BC
